:100000000C942A000C9447000C9447000C94470071
:100010000C9447000C9447000C9447000C94470044
:100020000C9447000C9447000C9447000C94470034
:100030000C9476030C9447000C9447000C944700F2
:100040000C9447000C9447000C9447000C94470014
:100050000C94470011241FBECFE5D8E0DEBFCDBF12
:1000600010E0A0E6B0E0E2E9F8E002C005900D92F1
:10007000A839B107D9F720E0A8E9B0E001C01D9286
:10008000A13AB207E1F70E941B020C9447040C94BA
:100090000000982F9695969596958770613009F493
:1000A00051C020F0623009F499C008959130B9F040
:1000B00028F0923029F19330A1F1089521E030E049
:1000C000A90102C0440F551F8A95E2F7CA019AB3ED
:1000D000982B9ABB9BB3809589238BBB089521E015
:1000E00030E0A90102C0440F551F8A95E2F7CA010A
:1000F00097B3982B97BB98B38095892388BB0895B5
:1001000021E030E0A90102C0440F551F8A95E2F7B3
:10011000CA0194B3982B94BB95B38095892385BB72
:10012000089521E030E0A90102C0440F551F8A95CF
:10013000E2F7CA0191B3982B91BB92B380958923C2
:1001400082BB08959130B9F028F0923029F19330B4
:10015000A1F1089521E030E0A90102C0440F551F2C
:100160008A95E2F7CA0180959AB398239ABB9BB30C
:1001700089238BBB089521E030E0A90102C0440F20
:10018000551F8A95E2F7CA01809597B3982397BBCC
:1001900098B3892388BB089521E030E0A90102C00B
:1001A000440F551F8A95E2F7CA01809594B39823AE
:1001B00094BB95B3892385BB089521E030E0A90164
:1001C00002C0440F551F8A95E2F7CA01809591B38A
:1001D000982391BB92B3892382BB08959130C1F0DB
:1001E00028F0923039F19330B9F1089521E030E0F0
:1001F000A90102C0440F551F8A95E2F7CA019AB3BC
:10020000282F209592239ABB9BB3892B8BBB0895F3
:1002100021E030E0A90102C0440F551F8A95E2F7A2
:10022000CA0197B3282F2095922397BB98B3892BA7
:1002300088BB089521E030E0A90102C0440F551F9A
:100240008A95E2F7CA0194B3282F2095922394BB94
:1002500095B3892B85BB089521E030E0A90102C048
:10026000440F551F8A95E2F7CA0191B3282F2095B4
:10027000922391BB92B3892B82BB0895982F9695B8
:100280009695969587706130E1F5913099F028F058
:100290009230E9F0933041F1089521E030E0A90176
:1002A00002C0440F551F8A95E2F7CA019BB3892B00
:1002B0008BBB089521E030E0A90102C0440F551F17
:1002C0008A95E2F7CA0198B3892B88BB089521E08B
:1002D00030E0A90102C0440F551F8A95E2F7CA0118
:1002E00095B3892B85BB089521E030E0A90102C0B8
:1002F000440F551F8A95E2F7CA0192B3892B82BB3E
:10030000089561113FC09130A1F028F09230F9F0CA
:10031000933059F1089521E030E0A90102C0440F63
:10032000551F8A95E2F7CA019BB3809589238BBB41
:10033000089521E030E0A90102C0440F551F8A95BD
:10034000E2F7CA0198B38095892388BB089521E01C
:1003500030E0A90102C0440F551F8A95E2F7CA0197
:1003600095B38095892385BB089521E030E0A901EC
:1003700002C0440F551F8A95E2F7CA0192B38095D7
:10038000892382BB0895982F969596959695482F28
:100390004770913081F028F09230B9F09330F9F045
:1003A00028C099B3892F90E002C0959587954A950A
:1003B000E2F78170089526B330E0C90102C0959537
:1003C00087954A95E2F78170089523B330E0C9011B
:1003D00002C0959587954A95E2F78170089520B3FC
:1003E00030E0C90102C0959587954A95E2F7817082
:1003F000089580E00895813041F028F0823039F08E
:10040000833039F008956BBB089568BB089565BBD0
:10041000089562BB0895CF93C0E009C0EC2FF0E0CF
:10042000EF59FF4F60818C2F0E944900CF5FC0328F
:10043000A8F3CF9108950E9420020E946502FDCF8B
:100440000E940B020E943B030E94620381E492E03F
:100450000E9471030E946D0378940895809160005A
:10046000882371F0A9E9B0E011968C911197ECE91D
:10047000F0E0808312968C91818381E080939E00CE
:100480000895CF93DF93C0919800D0E00E946B0352
:10049000C756DF4F888380919E000E946903809138
:1004A000990080936000809198008F5F80939800FE
:1004B000833041F41092980080919E00811102C017
:1004C0000E942E02DF91CF9108958F929F92AF925A
:1004D000BF92CF92DF92EF92FF92CF9380919E00D6
:1004E000813009F0B0C006C0ECE9F0E061818081A4
:1004F0000E949F0381E00E94C3018130A9F380E044
:100500000E944F0380909C00912CA12CB12C97C08D
:1005100080E00E944F03C12CD12C760119C0C82D58
:1005200060919D00882D0E949F0308C080E00E947A
:100530003C0360919D008C2F0E949F0381E00E94EC
:10054000C301813099F38FEFC81AD80AE80AF80A74
:1005500094E6C916D104E104F1040CF380919D00E6
:1005600081115EC0181419041A041B0424F48CE3CE
:1005700080939D0050C081149104A104B10409F03E
:100580004AC080E00E943C033EC061E080E00E94DF
:100590003E01E12CF12C0EC060919D0080E00E9494
:1005A0009F0389EF90E00197F1F700C000009FEFF3
:1005B000E91AF90A80EDE81687E0F8062CF481E0E4
:1005C0000E94C301882341F360E080E00E943E0165
:1005D000E12CF12C0EC060919D0080E00E949F03F1
:1005E00089EF90E00197F1F700C000009FEFE91A52
:1005F000F90A80EDE81687E0F8062CF481E00E9405
:10060000C301882341F381E00E94C301882309F4D8
:10061000BCCF10929E0091E0891A9108A108B10800
:1006200080916000811106C010929E0081E080934D
:10063000600017C0ECE9F0E0818181508183BB202C
:100640000CF066CF0EC080919E0081110AC060E060
:100650000E943E0180E00E943C0360E080E00E9436
:100660009F03CF91FF90EF90DF90CF90BF90AF901E
:100670009F908F9008950895CF93DF93C82FD0E077
:10068000CC0FDD1FCF57DF4F60E088810E943E0115
:1006900060E089810E943E01DF91CF910895CF9360
:1006A000DF93C82FD0E0CC0FDD1FCF57DF4F61E0C5
:1006B00088810E943E0160E089810E943E01DF91B5
:1006C000CF9108958DB18F7E8DB98DB180648DB934
:1006D00008958FB908958FB108958DB180688DB94F
:1006E00008959093A00080939F0008951F920F9209
:1006F0000FB60F9211242F933F934F935F936F93F5
:100700007F938F939F93AF93BF93EF93FF93E0916A
:100710009F00F091A000309709F00995FF91EF91AB
:10072000BF91AF919F918F917F916F915F914F9109
:100730003F912F910F900FBE0F901F9018950F9320
:100740001F93CF93DF93182FC62F61E089E10E949A
:100750003E0161E08AE10E943E0161E08BE10E947E
:100760003E01DDEC1D9F012D112406950695069591
:10077000E02FF0E0EE0FFF1FED57FF4F6081609517
:1007800082E00E94FB0160E088E10E943E0183EF6D
:1007900091E00197F1F700C0000061E088E10E945C
:1007A0003E0161E08AE10E943E0161E08BE10E942E
:1007B0003E01000F802F880F880F080F101BE12FBC
:1007C000F0E0EE0FFF1FED57FF4F6081609582E074
:1007D0000E94FB0160E089E10E943E0183EF91E00D
:1007E0000197F1F700C0000061E088E10E943E013E
:1007F00061E089E10E943E0161E08BE10E943E01DF
:10080000CD9FD12D1124D695D695D695ED2FF0E01C
:10081000EE0FFF1FED57FF4F6081609582E00E9451
:10082000FB0160E08AE10E943E0183EF91E00197C5
:10083000F1F700C0000061E089E10E943E0161E043
:1008400088E10E943E0161E08AE10E943E01DD0FE5
:100850008D2F880F880FD80FCD1BEC2FF0E0EE0FF7
:10086000FF1FED57FF4F6081609582E00E94FB0102
:1008700060E08BE10E943E0183EF91E00197F1F788
:1008800000C00000DF91CF911F910F910895F8945F
:02089000FFCF98
:100892000100020000020202020000000001010049
:1008A2000100000000000000000000000000000045
:1008B200001C1DC000F900A400B000990092008243
:0808C20000F800800090000026
:00000001FF
