:100000000C9434000C9451000C9451000C94510049
:100010000C9451000C9451000C9451000C9451001C
:100020000C9451000C9451000C9451000C9451000C
:100030000C94EE010C9451000C9451000C9451005E
:100040000C9451000C9451000C9451000C945100EC
:100050000C945100210226022B02300235023A0292
:100060003F02440249024E0211241FBECFE5D8E0F0
:10007000DEBFCDBF10E0A0E6B0E0ECECF4E002C0E3
:1000800005900D92A038B107D9F720E0A0E8B0E0C4
:1000900001C01D92A238B207E1F70E94DD010C9465
:1000A00064020C940000982F96959695969587700B
:1000B000613009F451C020F0623009F499C008950C
:1000C0009130B9F028F0923029F19330A1F10895E0
:1000D00021E030E0A90102C0440F551F8A95E2F7E4
:1000E000CA019AB3982B9ABB9BB3809589238BBB8B
:1000F000089521E030E0A90102C0440F551F8A9500
:10010000E2F7CA0197B3982B97BB98B380958923E0
:1001100088BB089521E030E0A90102C0440F551FBB
:100120008A95E2F7CA0194B3982B94BB95B3809556
:10013000892385BB089521E030E0A90102C0440F66
:10014000551F8A95E2F7CA0191B3982B91BB92B3E0
:100150008095892382BB08959130B9F028F09230C0
:1001600029F19330A1F1089521E030E0A90102C006
:10017000440F551F8A95E2F7CA0180959AB39823D8
:100180009ABB9BB389238BBB089521E030E0A90182
:1001900002C0440F551F8A95E2F7CA01809597B3B4
:1001A000982397BB98B3892388BB089521E030E05A
:1001B000A90102C0440F551F8A95E2F7CA01809534
:1001C00094B3982394BB95B3892385BB089521E00C
:1001D00030E0A90102C0440F551F8A95E2F7CA0119
:1001E000809591B3982391BB92B3892382BB0895E4
:1001F0009130C1F028F0923039F19330B9F108957F
:1002000021E030E0A90102C0440F551F8A95E2F7B2
:10021000CA019AB3282F209592239ABB9BB3892BAE
:100220008BBB089521E030E0A90102C0440F551FA7
:100230008A95E2F7CA0197B3282F2095922397BB9E
:1002400098B3892B88BB089521E030E0A90102C052
:10025000440F551F8A95E2F7CA0194B3282F2095C1
:10026000922394BB95B3892B85BB089521E030E0A0
:10027000A90102C0440F551F8A95E2F7CA0191B344
:10028000282F2095922391BB92B3892B82BB08958E
:10029000982F96959695969587706130E1F59130F7
:1002A00099F028F09230E9F0933041F1089521E07F
:1002B00030E0A90102C0440F551F8A95E2F7CA0138
:1002C0009BB3892B8BBB089521E030E0A90102C0CC
:1002D000440F551F8A95E2F7CA0198B3892B88BB52
:1002E000089521E030E0A90102C0440F551F8A950E
:1002F000E2F7CA0195B3892B85BB089521E030E070
:10030000A90102C0440F551F8A95E2F7CA0192B3B2
:10031000892B82BB089561113FC09130A1F028F074
:100320009230F9F0933059F1089521E030E0A901BD
:1003300002C0440F551F8A95E2F7CA019BB380950E
:1003400089238BBB089521E030E0A90102C0440F4E
:10035000551F8A95E2F7CA0198B38095892388BB17
:10036000089521E030E0A90102C0440F551F8A958D
:10037000E2F7CA0195B38095892385BB089521E0F2
:1003800030E0A90102C0440F551F8A95E2F7CA0167
:1003900092B38095892382BB0895CF93C0E009C0B2
:1003A000EC2FF0E0E05AFF4F60818C2F0E94530049
:1003B000CF5FC032A8F3CF9108950E9453020E94EC
:1003C0005802FDCF8DB18F7E8DB98DB180648DB90E
:1003D00008958FB9779BFECF8FB108951F920F922A
:1003E0000FB60F9211242F933F934F935F936F9308
:1003F0007F938F939F93AF93BF93EF93FF93E0917E
:100400008000F0918100309709F00995FF91EF91FC
:10041000BF91AF919F918F917F916F915F914F911C
:100420003F912F910F900FBE0F901F90189590E065
:10043000FC013197EA30F105A8F5E65DFF4F0C9419
:100440005E0261E080E10E944801089560E080E181
:100450000E944801089561E081E10E9448010895E9
:1004600060E081E10E944801089561E082E10E941C
:100470004801089560E082E10E944801089561E02A
:1004800083E10E944801089560E083E10E944801F1
:10049000089561E084E10E944801089560E084E1EC
:1004A0000E94480108950E94CD010E94E201089532
:1004B00084E10E94E9010E9417020895EE0FFF1FD8
:0C04C0000590F491E02D0994F894FFCF12
:1004CC000000000002020202000000000101000115
:1004DC000000000000000000000000000000000010
:00000001FF
