S01A000057617368696E674D616368696E654E6F64652E73726563FE
S11300000C942A000C9447000C9447000C9447006D
S11300100C9447000C9447000C94FF030C94AD031C
S11300200C94D6030C9484030C9447000C9447005E
S11300300C943B020C9447000C9447000C9447002A
S11300400C9447000C9447000C9447000C94470010
S11300500C94470011241FBECFE5D8E0DEBFCDBF0E
S113006010E0A0E6B0E0E6E1FBE002C005900D92EE
S1130070A839B107D9F720E0A8E9B0E001C01D9282
S1130080A73AB207E1F70E94E3010C9489050C94A6
S11300900000982F9695969596958770613009F48F
S11300A051C020F0623009F499C008959130B9F03C
S11300B028F0923029F19330A1F1089521E030E045
S11300C0A90102C0440F551F8A95E2F7CA019AB3E9
S11300D0982B9ABB9BB3809589238BBB089521E011
S11300E030E0A90102C0440F551F8A95E2F7CA0106
S11300F097B3982B97BB98B38095892388BB0895B1
S113010021E030E0A90102C0440F551F8A95E2F7AF
S1130110CA0194B3982B94BB95B38095892385BB6E
S1130120089521E030E0A90102C0440F551F8A95CB
S1130130E2F7CA0191B3982B91BB92B380958923BE
S113014082BB08959130B9F028F0923029F19330B0
S1130150A1F1089521E030E0A90102C0440F551F28
S11301608A95E2F7CA0180959AB398239ABB9BB308
S113017089238BBB089521E030E0A90102C0440F1C
S1130180551F8A95E2F7CA01809597B3982397BBC8
S113019098B3892388BB089521E030E0A90102C007
S11301A0440F551F8A95E2F7CA01809594B39823AA
S11301B094BB95B3892385BB089521E030E0A90160
S11301C002C0440F551F8A95E2F7CA01809591B386
S11301D0982391BB92B3892382BB08959130C1F0D7
S11301E028F0923039F19330B9F1089521E030E0EC
S11301F0A90102C0440F551F8A95E2F7CA019AB3B8
S1130200282F209592239ABB9BB3892B8BBB0895EF
S113021021E030E0A90102C0440F551F8A95E2F79E
S1130220CA0197B3282F2095922397BB98B3892BA3
S113023088BB089521E030E0A90102C0440F551F96
S11302408A95E2F7CA0194B3282F2095922394BB90
S113025095B3892B85BB089521E030E0A90102C044
S1130260440F551F8A95E2F7CA0191B3282F2095B0
S1130270922391BB92B3892B82BB0895982F9695B4
S11302809695969587706130E1F5913099F028F054
S11302909230E9F0933041F1089521E030E0A90172
S11302A002C0440F551F8A95E2F7CA019BB3892BFC
S11302B08BBB089521E030E0A90102C0440F551F13
S11302C08A95E2F7CA0198B3892B88BB089521E087
S11302D030E0A90102C0440F551F8A95E2F7CA0114
S11302E095B3892B85BB089521E030E0A90102C0B4
S11302F0440F551F8A95E2F7CA0192B3892B82BB3A
S1130300089561113FC09130A1F028F09230F9F0C6
S1130310933059F1089521E030E0A90102C0440F5F
S1130320551F8A95E2F7CA019BB3809589238BBB3D
S1130330089521E030E0A90102C0440F551F8A95B9
S1130340E2F7CA0198B38095892388BB089521E018
S113035030E0A90102C0440F551F8A95E2F7CA0193
S113036095B38095892385BB089521E030E0A901E8
S113037002C0440F551F8A95E2F7CA0192B38095D3
S1130380892382BB0895813041F028F0823039F00E
S1130390833039F008956BBB089568BB089565BB3D
S11303A0089562BB0895CF93C0E009C0EC2FF0E03C
S11303B0EE59FF4F60818C2F0E944900CF5FC032FD
S11303C0A8F3CF9108950E947A040E948C04FDCF73
S11303D0CF93DF93C82FD0E0CC0FDD1FCE57DF4F74
S11303E060E088810E943E0160E089810E943E01B4
S11303F0DF91CF910895CF93DF93C82FD0E0CC0F36
S1130400DD1FCE57DF4F61E088810E943E0160E02E
S113041089810E943E01DF91CF91089582E00E947C
S113042060038FE19EE497BD86BD0895282F30E0D8
S1130430A8EEB3E00E947A0524EB30E040E050E0FF
S11304400E94580529513C4F39BD28BD08958DB1EE
S11304508F7E8DB98DB180648DB908958FB908955B
S11304608FB108958DB180688DB9089590939900E6
S11304708093980008951F920F920FB60F92112443
S11304802F933F934F935F936F937F938F939F9398
S1130490AF93BF93EF93FF93E0919800F09199008D
S11304A0309709F00995FF91EF91BF91AF919F911A
S11304B08F917F916F915F914F913F912F910F9009
S11304C00FBE0F901F9018950F931F93CF93DF9338
S11304D0182FC62F61E089E10E943E0161E08AE1A4
S11304E00E943E0161E08BE10E943E01DDEC1D9F14
S11304F0012D1124069506950695E02FF0E0EE0FE8
S1130500FF1FEC57FF4F6081609582E00E94C3019A
S113051060E088E10E943E0183EF91E00197F1F7EA
S113052000C0000061E088E10E943E0161E08AE1D0
S11305300E943E0161E08BE10E943E01000F802F8A
S1130540880F880F080F101BE12FF0E0EE0FFF1F3C
S1130550EC57FF4F6081609582E00E94C30160E028
S113056089E10E943E0183EF91E00197F1F700C019
S1130570000061E088E10E943E0161E089E10E949F
S11305803E0161E08BE10E943E01CD9FD12D1124FB
S1130590D695D695D695ED2FF0E0EE0FFF1FEC57CC
S11305A0FF4F6081609582E00E94C30160E08AE1B0
S11305B00E943E0183EF91E00197F1F700C0000033
S11305C061E089E10E943E0161E088E10E943E0110
S11305D061E08AE10E943E01DD0F8D2F880F880FB4
S11305E0D80FCD1BEC2FF0E0EE0FFF1FEC57FF4FA1
S11305F06081609582E00E94C30160E08BE10E940B
S11306003E0183EF91E00197F1F700C00000DF9114
S1130610CF911F910F910895823029F128F48823F6
S113062041F0813099F045C0833051F18430A9F113
S113063040C08FB58E7F8FBD8FB58D7F8FBD8EB53A
S1130640877F8EBD8EB58F7E8EBD33C08FB58E7F76
S11306508FBD8FB58D7F8FBD8EB588608EBD8EB5F5
S113066080618EBD26C08FB58E7F8FBD8FB58D7F87
S11306708FBD8EB588608EBD8EB58F7E8EBD19C040
S11306808FB58E7F8FBD8FB582608FBD8EB588602C
S11306908EBD8EB580618EBD0CC08FB581608FBD5F
S11306A08FB582608FBD8EB588608EBD8EB580613A
S11306B08EBD8EB5887F8EBD8EB5682B6EBD0895B8
S11306C0813069F028F0823089F08330B1F00895E8
S11306D08FB58F7E8FBD8FB58F7D8FBD08958FB5FC
S11306E080618FBD8FB58F7D8FBD08958FB58F7E4F
S11306F08FBD8FB580628FBD08958FB580618FBD2A
S11307008FB580628FBD08951F920F920FB60F921E
S113071011242F933F934F935F936F937F938F9302
S11307209F93AF93BF93EF93FF93E091A000F09159
S1130730A100309709F00995FF91EF91BF91AF9116
S11307409F918F917F916F915F914F913F912F91E5
S11307500F900FBE0F901F9018951F920F920FB617
S11307600F9211242F933F934F935F936F937F9333
S11307708F939F93AF93BF93EF93FF93E0919E006A
S1130780F0919F00309709F00995FF91EF91BF9187
S1130790AF919F918F917F916F915F914F913F9115
S11307A02F910F900FBE0F901F9018951F920F92CC
S11307B00FB60F9211242F933F934F935F936F9330
S11307C07F938F939F93AF93BF93EF93FF93E091A6
S11307D09C00F0919D00309709F00995FF91EF91ED
S11307E0BF91AF919F918F917F916F915F914F9145
S11307F03F912F910F900FBE0F901F9018951F924D
S11308000F920FB60F9211242F933F934F935F9340
S11308106F937F938F939F93AF93BF93EF93FF93C4
S1130820E0919A00F0919B00309709F00995FF91AF
S1130830EF91BF91AF919F918F917F916F915F9154
S11308404F913F912F910F900FBE0F901F901895CD
S11308500E943002843629F48091A4000E942E0262
S11308600895883C21F481E08093A3000895909139
S1130870A200E92FF0E0EB55FF4F808381E0890F60
S11308808093A200823029F481E08093A400109226
S1130890A2000895823371F018F4813331F0089581
S11308A0833369F0843381F0089561E080E00E942D
S11308B03E01089561E081E00E943E01089561E0F7
S11308C082E00E943E01089561E083E00E943E01BF
S11308D0089560E080E00E943E0160E081E00E94B3
S11308E03E0160E082E00E943E0160E083E00E94FD
S11308F03E0108950E94D3010E94270261E083E033
S11309000E940C030E940E0288E294E00E943602C8
S11309100E943202789408954F925F926F927F9270
S11309208F929F92AF92BF92CF92DF92EF92FF92FB
S1130930CF93DF9300D000D0CDB7DEB78091A40071
S1130940813009F096C0A5EAB0E08C910E944A0477
S11309508091A6000E944A0480E00E94FB01BFE34C
S1130960EDE0F3E0B150E040F040E1F700C00000FA
S113097080E00E94E80180E00E94160280906000FE
S1130980912CA12CB12C19821A821B821C82412C1D
S1130990512C32016AC060916100882D0E9464026A
S11309A02FEFC21AD20AE20AF20A03C0C12CD12CD8
S11309B0760184E6C816D104E104F10464F380915D
S11309C0610081111BC0181419041A041B0424F4B7
S11309D08CE3809361000DC081149104A104B104DF
S11309E041F48CE3809361001092A40080E00E94A3
S11309F0160291E0891A9108A108B1088091A30018
S1130A00813041F41092A4001092A30080E00E946F
S1130A1016023BC0A4E04A16510461047104D9F4DF
S1130A2089819A81AB81BC81892B8A2B8B2B49F4D8
S1130A3084EB90E0A0E0B0E089839A83AB83BC832D
S1130A4004C019821A821B821C8289810E941602A8
S1130A50412C512C3201E0E6F0E081818150818308
S1130A609FEF491A590A690A790ABB200CF09ECFF4
S1130A700CC08091A400811108C00E94E8010E946A
S1130A80690460E080E00E9464020F900F900F9070
S1130A900F90DF91CF91FF90EF90DF90CF90BF90B8
S1130AA0AF909F908F907F906F905F904F9008953C
S1130AB0A1E21A2EAA1BBB1BFD010DC0AA1FBB1F5E
S1130AC0EE1FFF1FA217B307E407F50720F0A21BD0
S1130AD0B30BE40BF50B661F771F881F991F1A943D
S1130AE069F760957095809590959B01AC01BD0167
S1130AF0CF010895A29FB001B39FC001A39F700DC1
S1130B00811D1124911DB29F700D811D1124911D11
S1090B100895F894FFCFE4
S1130B16003B000000000202020200000000010186
S1130B2600010000000000000000000000000000BA
S1130B3600001D1EC000F900A400B0009900920038
S10B0B468200F8008000900019
S9030000FC
