S01200004D61737465724E6F64652E7372656320
S11300000C9431000C944E000C944E000C944E0051
S11300100C944E000C944E000C944E000C944E0024
S11300200C944E000C944E000C944E000C944E0014
S11300300C9454080C94BF080C944E000C94E808DB
S11300400C944E000C944E000C944E000C944E00F4
S11300500C944E003308360839083C083F0842081F
S1130060450811241FBECFE5D8E0DEBFCDBF11E0A7
S1130070A0E6B0E0E4EBF2E102C005900D92A23DEF
S1130080B107D9F721E0A2EDB1E001C01D92AD3E68
S1130090B207E1F70E9460040C9458090C94000024
S11300A0982F9695969596958770613009F451C06E
S11300B020F0623009F499C008959130B9F028F025
S11300C0923029F19330A1F1089521E030E0A901A3
S11300D002C0440F551F8A95E2F7CA019AB3982BC0
S11300E09ABB9BB3809589238BBB089521E030E0B4
S11300F0A90102C0440F551F8A95E2F7CA0197B3BC
S1130100982B97BB98B38095892388BB089521E0E9
S113011030E0A90102C0440F551F8A95E2F7CA01D5
S113012094B3982B94BB95B38095892385BB08958C
S113013021E030E0A90102C0440F551F8A95E2F77F
S1130140CA0191B3982B91BB92B38095892382BB4A
S113015008959130B9F028F0923029F19330A1F14B
S1130160089521E030E0A90102C0440F551F8A958B
S1130170E2F7CA0180959AB398239ABB9BB389236B
S11301808BBB089521E030E0A90102C0440F551F44
S11301908A95E2F7CA01809597B3982397BB98B3E1
S11301A0892388BB089521E030E0A90102C0440FEF
S11301B0551F8A95E2F7CA01809594B3982394BB9E
S11301C095B3892385BB089521E030E0A90102C0DD
S11301D0440F551F8A95E2F7CA01809591B398237D
S11301E091BB92B3892382BB08959130C1F028F06A
S11301F0923039F19330B9F1089521E030E0A9014A
S113020002C0440F551F8A95E2F7CA019AB3282FFA
S1130210209592239ABB9BB3892B8BBB089521E035
S113022030E0A90102C0440F551F8A95E2F7CA01C4
S113023097B3282F2095922397BB98B3892B88BB1B
S1130240089521E030E0A90102C0440F551F8A95AA
S1130250E2F7CA0194B3282F2095922394BB95B357
S1130260892B85BB089521E030E0A90102C0440F29
S1130270551F8A95E2F7CA0191B3282F209592233E
S113028091BB92B3892B82BB0895982F969596952E
S1130290969587706130E1F5913099F028F09230AD
S11302A0E9F0933041F1089521E030E0A90102C062
S11302B0440F551F8A95E2F7CA019BB3892B8BBB68
S11302C0089521E030E0A90102C0440F551F8A952A
S11302D0E2F7CA0198B3892B88BB089521E030E086
S11302E0A90102C0440F551F8A95E2F7CA0195B3CC
S11302F0892B85BB089521E030E0A90102C0440F99
S1130300551F8A95E2F7CA0192B3892B82BB0895DF
S113031061113FC09130A1F028F09230F9F0933090
S113032059F1089521E030E0A90102C0440F551F9E
S11303308A95E2F7CA019BB3809589238BBB089504
S113034021E030E0A90102C0440F551F8A95E2F76D
S1130350CA0198B38095892388BB089521E030E0D1
S1130360A90102C0440F551F8A95E2F7CA0195B34B
S11303708095892385BB089521E030E0A90102C05E
S1130380440F551F8A95E2F7CA0192B380958923D9
S113039082BB0895982F969596959695482F477009
S11303A0913081F028F09230B9F09330F9F028C000
S11303B099B3892F90E002C0959587954A95E2F705
S11303C08170089526B330E0C90102C095958795E0
S11303D04A95E2F78170089523B330E0C90102C061
S11303E0959587954A95E2F78170089520B330E09A
S11303F0C90102C0959587954A95E2F781700895E1
S113040080E00895CF93C0E009C0EC2FF0E0E05AFB
S1130410FF4F60818C2F0E945000CF5FC032A8F341
S1130420CF9108951F93CF93DF93D82F192FC62F01
S11304300E94880860E0812F80650E9491088D2FBA
S11304400E949C088C2F0E949C080E948E0883ECBA
S113045099E00197F1F700C00000DF91CF911F915F
S11304600895CF93DF93D82FC92F0E948808C065C1
S113047060E08C2F0E9491088D2F0E949C080E949E
S1130480880861E08C2F0E9491080E94A308C82F5D
S11304900E948E088C2FDF91CF910895EF92FF92E6
S11304A00F931F93CF938C017B01C0E005C0800F95
S11304B0911F0E941202CF5F8C2F90E0F701E80F8A
S11304C0F91F60816111F3CF800F911F0E94120206
S11304D0CF911F910F91FF90EF900895CF92DF92EB
S11304E0EF92FF920F931F93CF936C018B010E94A5
S11304F03102F8018083C0E00CC0CF5F8C2F90E004
S11305007801E80EF91E8C0D9D1D0E943102F70141
S11305108083F801EC0FF11D80818111EECFCF9122
S11305201F910F91FF90EF90DF90CF900895CF939C
S1130530C0E009C0EC2FF0E0E058FF4F61E080819B
S11305400E944501CF5FC430A8F3CF910895BF92B4
S1130550CF92DF92EF92FF920F931F93CF93DF938B
S11305600F2EFEE4BF2EF02DD12C2FC0ED2CF12C3C
S1130570F701E058FF4FC08060E08C2D0E944501D8
S1130580D0E01CC00D2F10E0F801EC57FF4FC081E4
S11305908C2F0E94CA01811110C0C701880F991FB6
S11305A0880F991F88579F4FFC01E00FF11FB080FF
S11305B08C2F0E94CA018823D9F3DF5FD43010F353
S11305C061E08C2D0E944501D39483E08D1570F673
S11305D08B2DDF91CF911F910F91FF90EF90DF90C2
S11305E0CF90BF900895CF93C82F60E086E10E941A
S11305F045016C2F661F6627661F85E10E94450131
S1130600C6FB662760F984E10E944501C5FB6627A5
S113061060F983E10E944501C4FB662760F982E129
S11306200E94450161E087E10E94450189EF90E065
S11306300197F1F700C0000060E087E10E944501E6
S113064089EF90E00197F1F700C00000C3FB662733
S113065060F985E10E944501C2FB662760F984E1E7
S11306600E944501C1FB662760F983E10E944501B0
S11306706C2F617082E10E94450161E087E10E9474
S1130680450189EF90E00197F1F700C0000060E0B8
S113069087E10E94450189EF90E00197F1F700C0DE
S11306A00000CF910895CF93C82F61E086E10E94A6
S11306B045016C2F661F6627661F85E10E94450170
S11306C0C6FB662760F984E10E944501C5FB6627E5
S11306D060F983E10E944501C4FB662760F982E169
S11306E00E94450161E087E10E94450189EF90E0A5
S11306F00197F1F700C0000060E087E10E94450126
S113070089EF90E00197F1F700C00000C3FB662772
S113071060F985E10E944501C2FB662760F984E126
S11307200E944501C1FB662760F983E10E944501EF
S11307306C2F617082E10E94450161E087E10E94B3
S1130740450189EF90E00197F1F700C0000060E0F7
S113075087E10E94450189EF90E00197F1F700C01D
S11307600000CF91089583ED90E30197F1F700C065
S1130770000082E00E94F30288E20E94F3028CE00F
S11307800E94F30281E00E94F30289EF90E0019756
S1130790F1F700C0000086E00E94F30208950E9471
S11307A0530308950F931F93CF938C01C0E003C0AC
S11307B00E94CF03CF5FF801EC0FF11D80818111FE
S11307C0F7CFCF911F910F910895CF92DF92EF92BF
S11307D0FF921F93CF93DF93CDB7DEB760970FB629
S11307E0F894DEBF0FBECDBF6B017C0161157105AE
S11307F08105910521F480E30E94CF033BC0992336
S11308005CF4F094E094D094C094C11CD11CE11C1D
S1130810F11C8DE20E94CF0310E015C0C701B601A0
S11308202AE030E040E050E00E941109605DE1E020
S1130830F0E0EC0FFD1FE10FF11D60831F5FC22E7E
S1130840D32EE42EF52EC114D104E104F10431F7C2
S1130850FF24FA94F10E0CC0E1E0F0E0EC0FFD1F70
S1130860EF0DF11DF7FCFA9580810E94CF03FA94F5
S1130870FF2094F760960FB6F894DEBF0FBECDBF8D
S1130880DF91CF911F91FF90EF90DF90CF9008956B
S113089081E00E94F30289EF90E00197F1F700C034
S11308A000000895811105C080E8860F0E94F302BC
S11308B00895813021F480EC860F0E94F30208959C
S11308C00E9413080E942708FDCFDC0140E003C00A
S11308D0921311C04F5F242F30E0FD01E20FF31F8C
S11308E09081992351F0FB01E20FF31F2081211124
S11308F0EFCF81E0089580E0089581E00895CF93DB
S1130900DF93DC018C91FB01808390E00BC09F5F3F
S1130910292F30E0FB01E20FF31FED01C20FD31FBB
S113092028812083FB01E90FF11D20812111EFCFE4
S1130930DF91CF9108950F931F93CF938C01C0E063
S11309400E94A7028E34E1F38D3329F4F801EC0FF1
S1130950F11D108209C0F801EC0FF11D8083CF5FF7
S11309608AE20E94CF03ECCFCF911F910F9108959B
S1130970CF93DF93CDB7DEB764970FB6F894DEBF9D
S11309800FBECDBF0E94480460E080E00E94520484
S113099088E990E00E94D2032FE986E891E0215093
S11309A080409040E1F700C000008EE20E94CF0337
S11309B02FE986E891E0215080409040E1F700C0A3
S11309C000008EE20E94CF032FE986E891E02150D7
S11309D080409040E1F700C000008EE20E94CF0307
S11309E02FE986E891E0215080409040E1F700C073
S11309F000000E94480480EA90E00E94D203CE01E5
S1130A0001960E949B0463ED71E0CE0101960E9461
S1130A106504813031F48091D2018F5F8093D201DB
S1130A200FC00E9448048BEA90E00E94D2032FE793
S1130A308AE196E0215080409040E1F700C0000038
S1130A4064960FB6F894DEBF0FBECDBFDF91CF9191
S1130A500895CF93DF930E94480460E080E00E94F1
S1130A6052048AEB90E00E94D20368E080E00E9486
S1130A70520482EC90E00E94D20360E081E00E9484
S1130A80520487EC90E00E94D20368E081E00E9467
S1130A9052048CEC90E00E94D203C0E0D0E00E94AB
S1130AA0A7028E34C1F0813321F483E08093D20114
S1130AB033C0823321F484E08093D2012DC0833388
S1130AC021F485E08093D20127C0843341F786E086
S1130AD08093D20121C0219689EF90E00197F1F72C
S1130AE000C00000C83893E1D907C9F60E94480441
S1130AF064E080E00E94520481ED90E00E94D20301
S1130B0064E081E00E9452048BED90E00E94D203E5
S1130B100E94A7028E34E1F3DF91CF910895CF9321
S1130B20DF93CDB7DEB764970FB6F894DEBF0FBE80
S1130B30CDBF0E94480460E080E00E94520483EE2E
S1130B4090E00E94D20360E081E00E94520481EFB1
S1130B5090E00E94D2030E94A7028E34E1F3813315
S1130B6079F50E94480460E080E00E94520488EF16
S1130B7090E00E94D203CE0101960E949B0463ED93
S1130B8071E0CE0101960E947F0463ED71E080E084
S1130B9090E00E944E020E94480483E091E00E948B
S1130BA0D2032FE78AE196E0215080409040E1F79C
S1130BB000C000008091D20181508093D20107C00F
S1130BC0823349F68091D2018F5F8093D20164967B
S1130BD00FB6F894DEBF0FBECDBFDF91CF9108955D
S1130BE0CF93DF930E94480480E191E00E94D203F6
S1130BF085E191E00E94D2038BE191E00E94D2034F
S1130C0060E081E00E94520481E291E00E94D203FC
S1130C1086E291E00E94D203D0E00E94A702C82F8E
S1130C208E34D9F38FEC8C0F8530F0F4D1111CC0C5
S1130C308C2F90E0C097880FDFEFD80F0E944804F4
S1130C4081E391E00E94D2038C2F0E94CF0360E0E5
S1130C5081E00E94520487E391E00E94D2038CE376
S1130C6091E00E94D203D9CF8230B8F6DD23A9F2F5
S1130C7082E08093D201CD0FC1530E94480461E009
S1130C808DE10E94450161E08FE10E94450160E031
S1130C908EE10E9445018C2F0E944F0861E08EE195
S1130CA00E944501DF91CF910895CF93DF930E9475
S1130CB0480487E491E00E94D20360E081E00E944E
S1130CC0520486E591E00E94D2038EE591E00E94F1
S1130CD0D2030E94A702D82F8E34D9F38FEC8D0F44
S1130CE08230B8F70E94480488E691E00E94D2035B
S1130CF060E081E00E9452048FE691E00E94D203FA
S1130D0085E791E00E94D2030E94A7028E34E1F3AA
S1130D109FEC980F9230C0F7C2E0C80F60E08DE1FD
S1130D200E94450161E08FE10E94450161E08EE18E
S1130D300E9445018D2F0E944F0883EF91E0019797
S1130D40F1F700C000008C2F0E944F0861E08DE194
S1130D500E94450182E08093D201DF91CF910895F2
S1130D600E94480480E891E00E94D20360E081E0A0
S1130D700E94520487E891E00E94D2030E94A702D5
S1130D808E34E1F38233A9F08133C1F760E08DE161
S1130D900E94450161E08FE10E94450161E08EE11E
S1130DA00E94450188EC0E944F0861E08DE10E9499
S1130DB0450182E08093D2010895CF9360E08DE1F4
S1130DC00E94450161E08FE10E94450161E08EE1EE
S1130DD00E94450184E60E944F0883EF91E0019749
S1130DE0F1F700C0000084E60E944F08C82F61E0BC
S1130DF08DE10E944501C11103C00E94550604C043
S1130E00C13011F40E94B006CF9108950F931F933F
S1130E10CF93DF930E94480482E991E00E94D203B9
S1130E2060E081E00E9452048DE991E00E94D203C7
S1130E300E94A7028E34E1F3813309F064C00E945A
S1130E40480484EA91E00E94D203D0E000E0C0E0CC
S1130E500E94A702182F80ED810F8A30C8F7D111A4
S1130E6013C0812F90E0C097880FC82FCC0FCC0FF0
S1130E70C80F65E080E00E9452046C2F70E080E0AF
S1130E8090E00E94E5033DC0D13089F4C10FC05306
S1130E9066E080E00E945204612F70E060537109A3
S1130EA0072E000C880B990B0E94E5032AC0D23050
S1130EB0A1F4212F30E020533109220F022F000F1B
S1130EC0000F020F68E080E00E945204602F70E07F
S1130ED080E090E00E94E50314C0D33091F4010F48
S1130EE0005368E080E00E945204612F70E0605378
S1130EF07109072E000C880B990B0E94E503D1E0C1
S1130F0008C0DF5FA5CF823309F092CF00E0C0E0D4
S1130F10D0E061E08DE10E94450161E08EE10E9434
S1130F20450160E08FE10E9445018D2F0E944F082A
S1130F3089EF90E00197F1F700C000008C2F0E9428
S1130F404F0889EF90E00197F1F700C00000802F6F
S1130F500E944F08C82F61E08FE10E944501C13013
S1130F6089F4D13079F40E9448048FEA91E00E9418
S1130F70D2039FE72AE186E0915020408040E1F7C8
S1130F8000C0000082E08093D201DF91CF911F91D5
S1130F900F9108950F931F93CF93DF938C01EB016F
S1130FA084E60E94B7080E94BB08F80180830E946F
S1130FB0BB088883DF91CF911F910F910895CF9340
S1130FC0DF9300D0CDB7DEB719821A82BE016E5FFF
S1130FD07F4FCE0101960E94CA070E94480480EC0C
S1130FE091E00E94D203698170E080E090E00E9469
S1130FF0E50360E081E00E94520487EC91E00E94E6
S1131000D2036A8170E080E090E00E94E5030E94D0
S1131010A7028E34E1F382E08093D2010F900F9007
S1131020DF91CF9108950E9402020E94B3030E94AF
S113103048080E94AB0881E00E947D080E94970244
S113104063ED71E080E090E00E946E020895E0910B
S1131050D2018E2F90E087309105C8F4FC01E65D43
S1131060FF4F0C9430090E94B80408950E948F0524
S113107008950E94290508950E94F00508950E948C
S1131080060708950E94DD0608950E94DF0708956B
S11310908DB180618DB98DB180648DB908958FB99A
S11310A0779BFECF8FB108951F920F920FB60F92C8
S11310B011242F933F934F935F936F937F938F9359
S11310C09F93AF93BF93EF93FF93E091E701F09168
S11310D0E801309709F00995FF91EF91BF91AF9125
S11310E09F918F917F916F915F914F913F912F913C
S11310F00F900FBE0F901F90189598E490B9880F29
S113110082B984E486BF11B881B18C7F81B9089516
S113111084EA86BF06B607FEFDCF089584E986BF3C
S1131120089590E0880F991F862B83B984E886BFC1
S113113006B607FEFDCF089583B984E886BF06B6D8
S113114007FEFDCF089586B7806886BF06B607FE02
S1131150FDCF83B108958BB18D7F8BB983E389B9BA
S11311608AB180618AB98AB188608AB908955D9B21
S1131170FECF8CB908955F9BFECF8CB108951F926A
S11311800F920FB60F9211242F933F934F935F93B7
S11311906F937F938F939F93AF93BF93EF93FF933B
S11311A0E091EB01F091EC01309709F00995FF9182
S11311B0EF91BF91AF919F918F917F916F915F91CB
S11311C04F913F912F910F900FBE0F901F90189544
S11311D01F920F920FB60F9211242F933F934F93A8
S11311E05F936F937F938F939F93AF93BF93EF938B
S11311F0FF93E091E901F091EA01309709F0099534
S1131200FF91EF91BF91AF919F918F917F916F91DA
S11312105F914F913F912F910F900FBE0F901F90B0
S11312201895052E97FB1EF400940E94280957FD7B
S113123007D00E94360907FC03D04EF40C94280909
S113124050954095309521953F4F4F4F5F4F0895EE
S113125090958095709561957F4F8F4F9F4F08951E
S1131260EE0FFF1F0590F491E02D0994A1E21A2ED0
S1131270AA1BBB1BFD010DC0AA1FBB1FEE1FFF1F36
S1131280A217B307E407F50720F0A21BB30BE40B86
S1131290F50B661F771F881F991F1A9469F76095CD
S11312A07095809590959B01AC01BD01CF01089587
S10712B0F894FFCFDC
S11312B4000000000202020200000000010001001C
S11312C40000000000000000010000000000000015
S11312D400010203040506073738392F3435362A4A
S11312E43132332D43303D2B57656C636F6D65008C
S11312F450617373776F72643A200057726F6E672C
S11313042050617373776F726400312E53746F7657
S11313146500322E4D5700332E574D00342E53732F
S11313240031322D392D3230323300353A33302006
S1131334504D00312E4368616E676520706173738C
S113134400322E4D656E75004E65772050617373BF
S11313543A200050617373204368616E67656400CA
S1131364312E46310020322E46320020332E4633AD
S113137400342E463400202020202020352E4635EB
S113138400466C616D6500312E4F4E0020202020F4
S113139420322E4F464600436C6F746865732043B5
S11313A46F6C6F723A00312E426C61636B002020C3
S11313B4322E57686974650057617465723A003156
S11313C42E486F740020202020322E436F6C64005A
S11313D4312E53746F7000322E476574204261635A
S11313E46B00312E5365742054696D6500322E539D
S11313F4746F700054696D653A30303A303000438C
S1131404616E2774207365742074696D65202100EE
S113141454454D503A200050726573737572653AA1
S10514242000A2
S9030000FC
