:100000000C942A000C9447000C9447000C94470071
:100010000C9447000C9447000C9447000C94470044
:100020000C9447000C9447000C9447000C94470034
:100030000C9447000C9449030C9447000C947203F1
:100040000C9447000C9447000C9447000C94470014
:100050000C94470011241FBECFE5D8E0DEBFCDBF12
:1000600010E0A0E6B0E0ECE9F7E002C005900D92E8
:10007000A038B107D9F720E0A0E8B0E001C01D9298
:10008000A738B207E1F70E9405030C94CC030C9447
:10009000000096B1987F96B9677096B1692B66B9E2
:1000A000813059F018F0823079F014C087B18F7B1D
:1000B00087B987B18F7787B90DC087B1806487B959
:1000C00087B18F7787B906C087B1806487B987B158
:1000D000806887B986B1806886B9089597B1907EA7
:1000E00097B997B1892B87B986B1806486B936995B
:1000F000FECF24B185B190E0982F8827820F911D03
:100100000895982F9695969596958770613009F485
:1001100051C020F0623009F499C008959130B9F0CF
:1001200028F0923029F19330A1F1089521E030E0D8
:10013000A90102C0440F551F8A95E2F7CA019AB37C
:10014000982B9ABB9BB3809589238BBB089521E0A4
:1001500030E0A90102C0440F551F8A95E2F7CA0199
:1001600097B3982B97BB98B38095892388BB089544
:1001700021E030E0A90102C0440F551F8A95E2F743
:10018000CA0194B3982B94BB95B38095892385BB02
:10019000089521E030E0A90102C0440F551F8A955F
:1001A000E2F7CA0191B3982B91BB92B38095892352
:1001B00082BB08959130B9F028F0923029F1933044
:1001C000A1F1089521E030E0A90102C0440F551FBC
:1001D0008A95E2F7CA0180959AB398239ABB9BB39C
:1001E00089238BBB089521E030E0A90102C0440FB0
:1001F000551F8A95E2F7CA01809597B3982397BB5C
:1002000098B3892388BB089521E030E0A90102C09A
:10021000440F551F8A95E2F7CA01809594B398233D
:1002200094BB95B3892385BB089521E030E0A901F3
:1002300002C0440F551F8A95E2F7CA01809591B319
:10024000982391BB92B3892382BB08959130C1F06A
:1002500028F0923039F19330B9F1089521E030E07F
:10026000A90102C0440F551F8A95E2F7CA019AB34B
:10027000282F209592239ABB9BB3892B8BBB089583
:1002800021E030E0A90102C0440F551F8A95E2F732
:10029000CA0197B3282F2095922397BB98B3892B37
:1002A00088BB089521E030E0A90102C0440F551F2A
:1002B0008A95E2F7CA0194B3282F2095922394BB24
:1002C00095B3892B85BB089521E030E0A90102C0D8
:1002D000440F551F8A95E2F7CA0191B3282F209544
:1002E000922391BB92B3892B82BB0895982F969548
:1002F0009695969587706130E1F5913099F028F0E8
:100300009230E9F0933041F1089521E030E0A90105
:1003100002C0440F551F8A95E2F7CA019BB3892B8F
:100320008BBB089521E030E0A90102C0440F551FA6
:100330008A95E2F7CA0198B3892B88BB089521E01A
:1003400030E0A90102C0440F551F8A95E2F7CA01A7
:1003500095B3892B85BB089521E030E0A90102C047
:10036000440F551F8A95E2F7CA0192B3892B82BBCD
:10037000089561113FC09130A1F028F09230F9F05A
:10038000933059F1089521E030E0A90102C0440FF3
:10039000551F8A95E2F7CA019BB3809589238BBBD1
:1003A000089521E030E0A90102C0440F551F8A954D
:1003B000E2F7CA0198B38095892388BB089521E0AC
:1003C00030E0A90102C0440F551F8A95E2F7CA0127
:1003D00095B38095892385BB089521E030E0A9017C
:1003E00002C0440F551F8A95E2F7CA0192B3809567
:1003F000892382BB0895CF93C0E009C0EC2FF0E0C1
:10040000E05AFF4F60818C2F0E948100CF5FC03285
:10041000A8F3CF9108950E943E03843651F4809151
:1004200084000E943A0380918500909186000E948A
:100430003A0308950E94FB010E94DF0266E080E01B
:100440000E9449000E942E038BE092E00E94440328
:100450000E944003789408950E94FB02F8940E9441
:100460000A0390938600809385000E941E03809368
:10047000840080918400869580938400209185007B
:1004800030918600ADECBCEC0E94BD03969587953B
:10049000969587959695879590938600809385008D
:1004A0007894809184008D3298F4809185009091A9
:1004B0008600889768F461E088E00E94760160E039
:1004C00089E00E94760160E08AE00E94760108954A
:1004D00080918400813330F4809185009091860072
:1004E0008C9760F060E088E00E94760161E089E02E
:1004F0000E94760161E08AE00E9476010895CF9320
:10050000C82F60E086E10E9476016C2F661F662787
:10051000661F85E10E947601C6FB662760F984E1CB
:100520000E947601C5FB662760F983E10E9476018F
:10053000C4FB662760F982E10E94760161E087E1F1
:100540000E94760189EF90E00197F1F700C000006A
:1005500060E087E10E94760189EF90E00197F1F772
:1005600000C00000C3FB662760F985E10E947601A8
:10057000C2FB662760F984E10E947601C1FB662711
:1005800060F983E10E9476016C2F617082E10E9424
:10059000760161E087E10E94760189EF90E00197A2
:1005A000F1F700C0000060E087E10E94760189EF6A
:1005B00090E00197F1F700C00000CF91089583ED1E
:1005C00090E30197F1F700C0000082E00E947F02F3
:1005D00088E20E947F028CE00E947F0281E00E94FC
:1005E0007F0289EF90E00197F1F700C0000086E0FC
:1005F0000E947F02089581E00E947F0289EF90E0CF
:100600000197F1F700C0000008950E941A020E94AD
:100610002C02FDCF81E00E946E009C01275331091E
:10062000A8EEB3E00E94BD0329E933E040E050E0CA
:100630000E949B03C9018A569F4F089580E00E9443
:100640006E009C01ACE2B1E00E94BD0323E331E007
:1006500040E050E00E949B03C90108958BB18D7F5B
:100660008BB983E389B98AB180618AB98AB188601C
:100670008AB908955D9BFECF8CB908958CB1089519
:100680008AB180688AB9089590938300809382002C
:1006900008951F920F920FB60F9211242F933F933C
:1006A0004F935F936F937F938F939F93AF93BF937A
:1006B000EF93FF93E0918200F0918300309709F06F
:1006C0000995FF91EF91BF91AF919F918F917F918C
:1006D0006F915F914F913F912F910F900FBE0F90AF
:1006E0001F9018951F920F920FB60F9211242F93FF
:1006F0003F934F935F936F937F938F939F93AF93AA
:10070000BF93EF93FF93E0918000F09181003097C9
:1007100009F00995FF91EF91BF91AF919F918F9152
:100720007F916F915F914F913F912F910F900FBEED
:100730000F901F901895A1E21A2EAA1BBB1BFD015A
:100740000DC0AA1FBB1FEE1FFF1FA217B307E407B0
:10075000F50720F0A21BB30BE40BF50B661F771F08
:10076000881F991F1A9469F76095709580959095E8
:100770009B01AC01BD01CF010895A29FB001B39FC1
:10078000C001A39F700D811D1124911DB29F700D9A
:0C079000811D1124911D0895F894FFCFE5
:10079C000101000002020202000000000100010041
:1007AC00000000000000000001000000000000003C
:00000001FF
